S01500004761726167652053797374656D2E7372656323
S11300000C9496000C94EA020C9428030C94B3000C
S11300100C94B3000C94B3000C94B3000C94B30090
S11300200C94B3000C94B3000C94B3000C94B30080
S11300300C94B3000C94B3000C94B3000C94B30070
S11300400C94B3000C94B3000C94B3000C94B30060
S11300500C94B300C100DA00F3000C012401240164
S11300602401240124012401240124012401240164
S11300702401240124012401240124012401240154
S11300802401240124012401240124012401240144
S113009024012401C100DA00F3000C0131014A01FA
S11300A063017C01940194019401940194019401ED
S11300B09401940194019401940194019401940194
S11300C09401940194019401940194019401940184
S11300D094019401940194019401940131014A0121
S11300E063017C01A001A601AC01B201B701B70113
S11300F0B701B701B701B701B701B701B701B7013C
S1130100B701B701B701B701B701B701B701B7012B
S1130110B701B701B701B701B701B701B701B7011B
S1130120B701B701A001A601AC01B20111241FBEA1
S1130130CFE5D8E0DEBFCDBF10E0A0E6B0E0E0E55B
S1130140F7E002C005900D92A837B107D9F720E077
S1130150A8E7B0E001C01D92AB37B207E1F70E94F7
S11301608B020C94A6030C94000090E0FC01E15473
S1130170F109E432F10508F067C0E65DFF4F0C9425
S11301806003413059F42AB381E090E002C0880F43
S1130190991F6A95E2F7822B8ABB08952AB381E0FE
S11301A090E002C0880F991F6A95E2F78095822338
S11301B08ABB0895413059F427B381E090E002C02E
S11301C0880F991F6A95E2F7822B87BB089527B39E
S11301D081E090E002C0880F991F6A95E2F780954C
S11301E0822387BB0895413059F424B381E090E021
S11301F002C0880F991F6A95E2F7822B84BB089589
S113020024B381E090E002C0880F991F6A95E2F759
S11302108095822384BB0895413059F421B381E051
S113022090E002C0880F991F6A95E2F7822B81BB88
S1130230089521B381E090E002C0880F991F6A9568
S1130240E2F78095822381BB089590E0FC01E1549C
S1130250F109E432F10508F067C0E25BFF4F0C944A
S11302606003413059F42BB381E090E002C0880F61
S1130270991F6A95E2F7822B8BBB08952BB381E01B
S113028090E002C0880F991F6A95E2F78095822357
S11302908BBB0895413059F428B381E090E002C04B
S11302A0880F991F6A95E2F7822B88BB089528B3BB
S11302B081E090E002C0880F991F6A95E2F780956B
S11302C0822388BB0895413059F425B381E090E03E
S11302D002C0880F991F6A95E2F7822B85BB0895A7
S11302E025B381E090E002C0880F991F6A95E2F778
S11302F08095822385BB0895413059F422B381E06F
S113030090E002C0880F991F6A95E2F7822B82BBA6
S1130310089522B381E090E002C0880F991F6A9586
S1130320E2F78095822382BB089590E0FC01E154BA
S1130330F109E432F105D8F4EE58FF4F0C94600350
S11303408BB38F70607F682B6BBB089588B38F70FD
S1130350607F682B68BB089585B38F70607F682BBE
S113036065BB089582B38F70607F682B62BB08956C
S113037041E063E082E60E94250189EF90E0019765
S1130380F1F700C0000040E063E082E60E9425012E
S11303900895CF93C82F40E061E082E60E942501D2
S11303A040E062E082E60E9425016C2F81E60E9413
S11303B095010E94B8016C2F6295607F81E60E94CE
S11303C095010E94B80181EE94E00197F1F700C015
S11303D00000CF91089541E064E081E60E94B500F9
S11303E041E065E081E60E94B50041E066E081E617
S11303F00E94B50041E067E081E60E94B50041E05B
S113040063E082E60E94B50041E061E082E60E947A
S1130410B50041E062E082E60E94B50085EA9EE014
S11304200197F1F700C0000083E30E94C90182E351
S11304300E94C90188E20E94C9018CE00E94C9019E
S113044081E00E94C90186E00E94C901089581E00B
S11304500E94C9010895CF93C82F41E061E082E66C
S11304600E94250140E062E082E60E9425016C2F93
S113047081E60E9495010E94B8016C2F6295607F0D
S113048081E60E9495010E94B80182E48A95F1F701
S113049000C0CF9108950F931F93CF93FC018081E7
S11304A0882359F08F01C0E00E942B02CF5FF8012E
S11304B0EC0FF11D80818111F7CFCF911F910F9126
S11304C00895CF93DF93CDB7DEB760970FB6F89456
S11304D0DEBF0FBECDBF4AE050E0BE016F5F7F4F6D
S11304E00E946603CE0101960E944B0260960FB6ED
S11304F0F894DEBF0FBECDBFDF91CF910895811177
S113050005C080E8860F0E94C901089580EC860F1B
S11305100E94C90108950E94EB010E942702789469
S11305208BB780648BBF8BB780688BBF85B78E7F9A
S113053085BF85B7826085BF85B78B7F85BF85B74B
S1130540886085BF41E063E083E40E94B500AB9816
S113055041E064E083E40E94B500AC9840E062E0CE
S113056084E40E94B50040E063E084E40E94B500A6
S11305700E94270260E080E00E947F0281E690E012
S11305800E944B0260E081E00E947F0280E790E0DD
S11305900E944B028091600090917A00891B8093A5
S11305A0780090E00E9461022FEF83EC99E02150E3
S11305B080409040E1F700C00000DCCF813011F4AE
S11305C0AC9A0895AC980895813011F4AB9A0895CB
S11305D0AB9808951F920F920FB60F9211242F9388
S11305E03F934F935F936F937F938F939F93AF93B7
S11305F0BF93EF93FF9320917A0081E0820F809361
S11306007A0090916000891307C081E00E94E4029F
S113061080E00E94DE020BC0891738F481E00E945A
S1130620DE0280E00E94E40202C020937A00FF917F
S1130630EF91BF91AF919F918F917F916F915F9156
S11306404F913F912F910F900FBE0F901F901895CF
S11306501F920F920FB60F9211242F933F934F9333
S11306605F936F937F938F939F93AF93BF93EF9316
S1130670FF9380917A0090917900891307C081E0FB
S11306800E94DE0280E00E94E40209C0815080934F
S11306907A0081E00E94DE0280E00E94E402FF9181
S11306A0EF91BF91AF919F918F917F916F915F91E6
S11306B04F913F912F910F900FBE0F901F9018955F
S11306C0EE0FFF1F0590F491E02D0994453251057A
S11306D020F4423010F00C947103FB011082CB0122
S11306E00895BB274A3031F4992322F4BDE2909552
S11306F081959F4F0C947D03BB27FB015527AA27A7
S1130700880F991FAA1FA41710F0A41B839550519A
S1130710B9F7A05DAA3308F0A95DA193009779F712
S1130720B111B1931192CB010C949603DC01FC013D
S1130730672F71917723E1F7329704C07C916D9311
S113074070836291AE17BF07C8F30895F894FFCF82
S113075005204761726167652053797374656D0084
S10B076053706163653A200047
S9030000FC
